:100000000C94B4000C94DC000C94DC000C94990269
:100010000C9475020C9451020C94DC000C94DC00DE
:100020000C94DC000C94DC000C94DC000C94DC00E0
:100030000C94DC000C94DC000C94DC000C94DC00D0
:100040000C9445030C94DC000C94DC000C94DC0054
:100050000C94DC000C94DC000C94DC000C94DC00B0
:100060000C9401060C94DC00000000002400270022
:100070002A0000000007000201000003040600003F
:1000800000000000000000C201000100110011008A
:100090000C0000E100000A00250025002100009668
:1000A00000001900390039003600127A00001F00E4
:1000B0004600460044008070000022004D004D00C4
:1000C0004A00004B00003600750075007200403891
:1000D00000004A009C009C009900802500007200EE
:1000E000EC00EC00E900C0120000E900DA01DA01DE
:1000F000D70160090000D701B603B603B303B0040B
:100100000000B3036E076E076B07580200006E070E
:10011000DC0EDC0ED80E2C010000DC0EC11DC11D52
:10012000BE1D2D2D2D3E20000000000025002800C2
:100130002B00000000002300260029000404040412
:100140000404040402020202020203030303030381
:10015000010204081020408001020408102001025E
:1001600004081020E809B50911241FBECFEFD8E01C
:10017000DEBFCDBF11E0A0E0B1E0E6ECF5E102C0EA
:1001800005900D92A238B107D9F724E0A2E8B1E0BA
:1001900001C01D92A13AB207E1F710E0C3EBD0E035
:1001A00004C02197FE010E94D00AC23BD107C9F7C3
:1001B0000E944D070C948B0A0C9400002091D301EF
:1001C0003091D4012817390739F48FB7F894109279
:1001D000D1011092D2018FBF08952091D3013091A7
:1001E000D4012817390771F48091D1012091D201EF
:1001F00090E0805C9F4F821B910960E470E00E9458
:10020000A80A089580E090E008952091D3013091EC
:10021000D40128173907B9F49091D2018091D10106
:10022000981789F0E091D201F0E0EF56FE4F8081FF
:100230002091D20130E02F5F3F4F2F73332720935F
:10024000D20190E008958FEF9FEF089520E001978D
:100250002FEF8F3F9207D9F70895EF92FF920F93F8
:100260001F93CF93DF93C091D301D091D4012097F6
:1002700009F450C09B8DEE85FF858D8591FF04C0EC
:100280009081892329F446C09081892309F042C0D6
:100290008B899C890E94260188E0E82EF12C10E0D1
:1002A00001E08D899E890E942601EE85FF8590815F
:1002B0008D85892311F0102B03C0802F8095182382
:1002C000000F81E0E81AF10861F78F89988D0E948C
:1002D00026018B8D81FD10958091D1012091D20155
:1002E00090E001968F73992730E08217930779F099
:1002F000E091D101F0E0EF56FE4F10838091D101E3
:1003000090E001968F7399278093D10103C08B8D64
:1003100081608B8FDF91CF911F910F91FF90EF90B4
:1003200008953FB7F8948091830190918401A09142
:100330008501B091860126B5A89B05C02F3F19F015
:100340000196A11DB11D3FBFBA2FA92F982F882755
:10035000820F911DA11DB11DBC01CD0142E0660FB0
:10036000771F881F991F4A95D1F70895CF92DF9282
:10037000EF92FF92CF93DF936B017C010E9491017A
:10038000EB01C114D104E104F10479F00E94910160
:100390006C1B7D0B683E7340A0F381E0C81AD10846
:1003A000E108F108C851DC4FECCFDF91CF91FF900D
:1003B000EF90DF90CF900895DF92EF92FF920F932E
:1003C0001F93CF93DF93EC01298D3A8D21153105D1
:1003D00029F481E090E09B838A835AC0162FDFB610
:1003E000F8948B8D81FD4DC0CE010E944107898D0F
:1003F0009A8D05960E9426018B8D98E0E92EF12CAE
:1004000001E081FF1AC0802F812321F0CE010E94DC
:10041000410706C0E989FA8990818889892B808300
:10042000898D9A8D0E942601000F81E0E81AF1085B
:1004300051F7CE010E9441071CC0802F812339F063
:10044000E989FA8990818889892B808303C0CE014C
:100450000E944107898D9A8D0E942601000F81E03C
:10046000E81AF10851F7E989FA8990818889892B7E
:100470008083DFBE898D9A8D0E94260121E030E0C5
:1004800007C0E989FA8990818889892B8083AFCF59
:10049000C901DF91CF911F910F91FF90EF90DF90F5
:1004A00008951F920F920FB60F9211242F933F932E
:1004B0004F935F936F937F938F939F93AF93BF936C
:1004C000EF93FF930E942D01FF91EF91BF91AF91A8
:1004D0009F918F917F916F915F914F913F912F915C
:1004E0000F900FBE0F901F9018951F920F920FB68E
:1004F0000F9211242F933F934F935F936F937F93AA
:100500008F939F93AF93BF93EF93FF930E942D011F
:10051000FF91EF91BF91AF919F918F917F916F91DB
:100520005F914F913F912F910F900FBE0F901F90B1
:1005300018951F920F920FB60F9211242F933F938D
:100540004F935F936F937F938F939F93AF93BF93DB
:10055000EF93FF930E942D01FF91EF91BF91AF9117
:100560009F918F917F916F915F914F913F912F91CB
:100570000F900FBE0F901F90189590E0FC01EE5861
:10058000FF4F3491FC01E05BFE4F2491FC01E45CE1
:10059000FE4FE491EE2309F43BC0332339F13330AD
:1005A00091F038F43130A9F0323001F584B58F7D07
:1005B00012C0363091F03730A1F03430B9F4809168
:1005C00080008F7D03C0809180008F7780938000B2
:1005D0000DC084B58F7784BD09C08091B0008F773E
:1005E00003C08091B0008F7D8093B000F0E0EE0FEB
:1005F000FF1FE85DFE4FA591B4918FB7F894EC9181
:10060000611103C020952E2301C02E2B2C938FBF88
:100610000895CF93DF9390E0FC01E05BFE4F2491BF
:10062000FC01E45CFE4F8491882361F190E0880F27
:10063000991FFC01E859FF4FC591D491FC01E85D79
:10064000FE4FA591B491611109C09FB7F8948881BC
:10065000209582238883EC912E230BC0623061F4B5
:100660009FB7F8943881822F809583238883EC91FB
:100670002E2B2C939FBF06C08FB7F894E8812E2BAA
:1006800028838FBFDF91CF9108951F920F920FB6ED
:100690000F9211242F933F938F939F93AF93BF9308
:1006A0008091D5019091D601A091D701B091D80148
:1006B0003091820123E0230F2D3720F40196A11DF4
:1006C000B11D05C026E8230F0296A11DB11D209380
:1006D00082018093D5019093D601A093D701B09366
:1006E000D8018091830190918401A0918501B091FE
:1006F00086010196A11DB11D809383019093840111
:10070000A0938501B0938601BF91AF919F918F9186
:100710003F912F910F900FBE0F901F90189585ED70
:100720008093BC008091BC0084FDFCCF1092DE0160
:1007300008950895E091DA018091D901E81730F425
:10074000F0E0E35CFB4F808190E008958FEF9FEF36
:1007500008959091DA018091D901981750F4E92F0A
:10076000F0E0E35CFB4F208130E09F5F9093DA0183
:1007700002C02FEF3FEFC90108958091D90190E0A9
:100780002091DA01821B91090895CF92DF92EF92B6
:10079000FF920F931F93CF93DF937C018A01809187
:1007A000DF01882389F0EB016B01C40ED51ECC1547
:1007B000DD05F1F06991D701ED91FC910190F08197
:1007C000E02DC7010995F3CF842F413288F4909131
:1007D000DE01943069F440931804FB0126EF33E006
:1007E000D9019A2F921B981718F491919D93F9CFE4
:1007F000C801DF91CF911F910F91FF90EF90DF9093
:10080000CF9008952091DF012223C9F02091E201C9
:10081000203240F021E030E0FC013383228380E08D
:1008200090E008958091E001E82FF0E0EF57FB4F52
:1008300060838F5F8093E0018093E20109C0809123
:10084000DE01843029F481E0809318046093F6037C
:1008500081E090E008950895CF92DF92EF92FF92A9
:100860000F931F93CF93DF936C01EB017B01E40E99
:10087000F51E00E010E0CE15DF0561F06991D601AC
:10088000ED91FC910190F081E02DC6010995080FD2
:10089000191FF1CFC801DF91CF911F910F91FF90E8
:1008A000EF90DF90CF900895AF92BF92DF92EF92DA
:1008B000FF920F931F93CF93DF938C01D62EDC0111
:1008C0001696ED90FC901797E114F10449F15C0144
:1008D000B9E5AB0EB11CF5018081811114C0E2E2D3
:1008E000F1E06491EF012196662351F0D701ED917B
:1008F000FC910190F081E02DC7010995FE01F1CF37
:1009000081E0F5018083D80116968D919C9117970F
:10091000DC01ED91FC910190F081E02D6D2D0995A8
:10092000F80184819581DC01ED91FC910190F081C9
:10093000E02D6D2DDF91CF911F910F91FF90EF90E2
:10094000DF90BF90AF9009942091D3013091D401F2
:100950002817390781F49091D2018091D10198171D
:1009600051F0E091D201F0E0EF56FE4F8081082E69
:10097000000C990B08958FEF9FEF08952091E201ED
:100980009091E101213208F046C08091DE01811191
:10099000FCCF32E03093DE0131E03093DD013FEFF8
:1009A0003093800410927F0420937E04A1E8B4E089
:1009B0004EE554E0FA013E2F341B321718F43D91F6
:1009C0003193F9CF10925D0420915D04990F922B21
:1009D00090935D049091DC01913041F41092DC0120
:1009E00090915D049093BB0095EC01C095EE9093BF
:1009F000BC009091DE019230E1F3909180049F3F22
:100A000079F080918004803241F0809180048033BD
:100A100031F084E005C081E003C082E001C083E0E2
:100A20001092E0011092E2011092DF010895CF933D
:100A3000C62F9091DB01906221E02093DF0190931B
:100A4000E1011092E0011092E201682F83EE91E043
:100A50000E9402046C2F83EE91E00E940204CF9169
:100A60000C94BE049091DB01906221E02093DF01A1
:100A70009093E1011092E0011092E201682F83EE61
:100A800091E00E9402040E94BE048091DB019091DB
:100A9000DE019111FCCF91E09093DE019093DD0196
:100AA0002FEF2093800410927F0410927E04909385
:100AB0005D0490915D048062880F892B80935D04B2
:100AC0008091DC01813041F41092DC0180915D0461
:100AD0008093BB0085EC01C085EE8093BC008091C3
:100AE000DE018130E1F380917F04811103C08091A8
:100AF0007F0401C081E0AEE5B4E02DE334E0F9010C
:100B00009E2F921B981718F49D919193F9CF1092F4
:100B1000DA018093D90183EE91E00E94A903089540
:100B20000F931F93CF93DF930091F3011091F40182
:100B3000C0E0D0E02FB7F8948091D5019091D60114
:100B4000A091D701B091D8012FBFF801808791877C
:100B5000A287B387D801ED91FC910680F781E02D43
:100B6000C801099597FD04C08A309105F9F427C0A2
:100B70002FB7F8948091D5019091D601A091D7011B
:100B8000B091D8012FBFF8014085518562857385EA
:100B9000841B950BA60BB70B448155816681778129
:100BA00084179507A607B707A8F209C0FE01E1510F
:100BB000FE4F81872196C035D10509F0BBCFFE01DC
:100BC000E151FE4F11868091F3019091F401DC0117
:100BD000ED91FC910084F185E02D09950D9759F474
:100BE0008091F3019091F401DC01ED91FC9106807C
:100BF000F781E02D0995CE01DF91CF911F910F91E3
:100C000008951F920F920FB60F9211242F933F93C6
:100C10004F935F936F937F938F939F93AF93BF9304
:100C2000EF93FF938091B900887F803609F49CC0D0
:100C300068F5883209F45BC090F4803109F454C03F
:100C400038F4882309F4F3C0883009F44DC0F3C0A8
:100C5000883109F44CC0803209F45DC0ECC08034A6
:100C600009F468C048F4803309F455C0883309F0AA
:100C7000E2C080938004D5C0803509F44FC0883528
:100C800009F45DC0883409F0D6C0D3C0883909F4AE
:100C9000C4C0A8F4883709F467C038F4883609F46A
:100CA00063C0803709F460C0C6C0883809F4B5C095
:100CB000803909F45FC0803809F0BDC05BC0803B5B
:100CC00009F483C038F4803A09F466C0883A09F41C
:100CD0007CC0B1C0803C09F4A4C0883C09F4A1C028
:100CE000883B09F487C0A7C080915D0410C0909133
:100CF0007F0480917E04981770F5E0917F0481E075
:100D00008E0F80937F04F0E0E25AFB4F8081809346
:100D1000BB0085EC83C0809380048BC0E0917F048E
:100D200081E08E0F80937F048091BB00F0E0E25A57
:100D3000FB4F808390917F0480917E046BC0E09193
:100D40007F0481E08E0F80937F048091BB00F0E0F0
:100D5000E25AFB4F80838091DD0181116AC081E0FE
:100D60008093DC0184EA5EC083E08093DE01109210
:100D70003C04CFCF80913C04803208F04EC0E0911B
:100D80003C0481E08E0F80933C048091BB00F0E036
:100D9000E45EFB4F8083BDCF80913C04803230F411
:100DA000E0913C04F0E0E45EFB4F10820E948F0370
:100DB00060913C0470E0E0911A04F0911B048CE116
:100DC00094E0099510923C042CC084E08093DE01ED
:100DD0001092190410921804E0911604F09117046F
:100DE000099580911804811105C081E08093180451
:100DF0001092F603E091190481E08E0F809319049C
:100E0000F0E0EA50FC4F80818093BB009091190480
:100E100080911804981708F47CCF85E88093BC0073
:100E20000AC085EC8093BC001092DE0104C01092D1
:100E300080040E948F03FF91EF91BF91AF919F912A
:100E40008F917F916F915F914F913F912F910F9073
:100E50000FBE0F901F9018956115710579F0FB0179
:100E600001900020E9F73197AF01461B570BDC01D9
:100E7000ED91FC910280F381E02D099480E090E0F7
:100E80000895DC015196ED91FC9152979081509616
:100E90008C918095892380830895CF93DF93CDB77C
:100EA000DEB7A1970FB6F894DEBF0FBECDBF789422
:100EB00084B5826084BD84B5816084BD85B582605F
:100EC00085BD85B5816085BD80916E008160809310
:100ED0006E00109281008091810082608093810079
:100EE0008091810081608093810080918000816089
:100EF000809380008091B10084608093B1008091E4
:100F0000B00081608093B00080917A00846080930B
:100F10007A0080917A00826080937A0080917A00D2
:100F2000816080937A0080917A00806880937A0053
:100F30001092C1001092F4031092F3031092F20386
:100F40001092F1031092F0031092EF031092EE034F
:100F50001092ED0386E890E020E030E0FC0145913E
:100F6000559165917491403855426105710559F567
:100F70004CE0429FC001439F900D1124FC01E657B5
:100F8000FF4F259134913093EE032093ED03FC0144
:100F9000E457FF4F259134913093F0032093EF03F2
:100FA000FC01E257FF4F259134913093F2032093D7
:100FB000F103FC01E057FF4F859194919093F40366
:100FC0008093F30307C02F5F3F4F0C962D30310500
:100FD00009F0C4CF8091F1039091F203892B09F4B9
:100FE00046C09091E6039631E0F520916800983074
:100FF00050F031E09E3008F430E081E001C0880F0D
:101000003A95EAF701C084E0822B8093680098301B
:1010100038F09E3040F0963148F4ECE6F0E008C03D
:10102000EDE6F0E005C0EBE6F0E002C0E0E0F0E065
:101030004081983030F481E001C0880F9A95EAF73A
:101040000EC0292F30E09E3018F42850310902C01C
:101050002E50310981E001C0880F2A95EAF7842BD0
:1010600080838091F3039091F4030E942601809184
:10107000D3019091D4018A5D934091F08091F50362
:101080008E7F8093F5038FB7F8941092D101109260
:10109000D2012AED33E03093D4012093D3018FBFE6
:1010A00061E08DE00E94090360E08DE00E94BD02D6
:1010B0001092DB011092DA011092D9011092E00136
:1010C0001092E2011092DE0181E08093DD01109226
:1010D000DC0161E082E10E94BD0261E083E10E94E7
:1010E000BD028091B9008E7F8093B9008091B900D4
:1010F0008D7F8093B90088E48093B80085E4809365
:10110000BC006FEF80E00E9417056FEF81E00E9446
:10111000170510E0812C912C5401839401E01830C4
:1011200008F400E0802F0E943205912F977075011E
:10113000640104C0CC0CDD1CEE1CFF1C9A95D2F798
:101140006C2D60956823802F0E941705183010F0D1
:1011500085E101C084E10E943205682F6C291830B6
:1011600010F083E101C082E10E9417051F5F10317A
:10117000A9F660E08091F7010E94BD0261E08091D4
:10118000F7010E9409036AE070E080E090E00E94AD
:10119000B60160E08091F7010E94090368EE73E0F8
:1011A00080E090E00E94B6010E9490050E949005A8
:1011B00068E671E088EF91E00E948E0A892B59F071
:1011C0006AEF70E080E090E00E94B6010E94900516
:1011D0000E94900503C082E0809390018091F3010A
:1011E0009091F401DC01ED91FC910480F581E02DFA
:1011F0000995A091F301B091F401892B49F0ED918B
:10120000FC9111970680F781E02DCD010995E6CF7D
:1012100060E871E0CD010E942C070091F30110916C
:10122000F40119A281E388A3BE01605E7F4FC8016B
:101230000E942C07D801ED91FC910190F081E02DE6
:101240006DE0C8010995D801ED91FC910190F08104
:10125000E02D6AE0C80109950E9490050E94900562
:1012600081E08093900140E0C42E40E0D42E209194
:101270009001222319F0213031F070C061E08DE03F
:101280000E94BD026BC08FB7F8944091D501509178
:10129000D6016091D7017091D8018FBF40938C0126
:1012A00050938D0160938E0170938F01109187018F
:1012B000812F90E08090880190908901A0908A0110
:1012C000B0908B01481959096A097B09880F991F49
:1012D000FC01E05EFE4F80809180A12CB12C841631
:1012E0009506A606B706D0F51F5F10938701FC018F
:1012F000E050FF4FE080F180E094F0948091DB01BA
:1013000080622093DF018093E1011092E00110924E
:10131000E20162E183EE91E00E9402046E2D83EE11
:1013200091E00E9402046F2D83EE91E00E9402047E
:101330000E94BE0480918C0190918D01A0918E013C
:10134000B0918F018093880190938901A0938A01C5
:10135000B0938B01103110F010929001C114D104A0
:1013600009F485CF0E94000082CF8CE591E0909334
:10137000DB038093DA032091E603263140F5283021
:1013800028F02E3030F0ECE6F0E005C0EDE6F0E0BD
:1013900002C0EBE6F0E03081283038F481E090E0E4
:1013A00001C0880F2A95EAF70FC0422F50E02E3077
:1013B00018F44850510902C04E50510981E090E0A4
:1013C00001C0880F4A95EAF78095832380830895AA
:1013D0001092E6011092E50188EE93E0A0E0B0E003
:1013E0008093E7019093E801A093E901B093EA01AB
:1013F00024E431E03093E4012093E3011092DD0313
:101400001092DC038093DE039093DF03A093E0034C
:10141000B093E1038CE591E09093DB038093DA03D2
:101420001092EE031092ED031092F0031092EF036E
:101430001092F2031092F1031092F4031092F3034E
:101440008091F5038E7F8D7F8093F50361E086E0C8
:101450000E94090361E086E00E94BD02E6E5F1E03A
:10146000E491E093EA03E2E4F1E0E491F0E0EE0FCE
:10147000FF1FE85DFE4F859194919093EC0380935C
:10148000EB0360E085E00E9409038091F50381FD94
:1014900004C061E085E00E94BD0285E08093E60320
:1014A000E5E5F1E0E491E093E703E1E4F1E0E491C4
:1014B000F0E0EE0FFF1FEE5CFE4F8591949190934C
:1014C000E9038093E8031092F2011092F10184E5A0
:1014D00091E09093F0018093EF018AED93E0909377
:1014E000F4018093F3011092F6011092F50184E06B
:1014F0008093F70184EF91E0A0E0B0E08093DE03F9
:101500009093DF03A093E003B093E10310924802AD
:10151000109249020895F8940C94D60AFB01519157
:101520005523A9F0BF01DC014D9145174111E1F7A9
:1015300059F4CD010190002049F04D914015411121
:10154000C9F3FB014111EFCF81E090E001970895CD
:1015500097FB072E16F4009407D077FD09D00E9460
:10156000BC0A07FC05D03EF4909581959F4F0895E5
:10157000709561957F4F0895AA1BBB1B51E107C071
:10158000AA1FBB1FA617B70710F0A61BB70B881F13
:10159000991F5A95A9F780959095BC01CD010895A2
:1015A000EE0FFF1F0590F491E02D099410E0C3EBBE
:1015B000D0E004C0FE010E94D00A2196C43BD107AE
:0615C000C9F7F894FFCF0B
:1015C60000000100020003000400050006000700F9
:1015D600080009000A000B000C000D000E000F00A9
:1015E600E803E803E803E803E803E803E803E8039D
:1015F600E803E803E803E803E803E803E803E8038D
:10160600000000000204C503BD03A9039A03990361
:101616000000000054042C0400000000DC012C042F
:10162600ED000501A404DE0041646166727569740B
:1016360020465820536F756E6420426F61726400B5
:0216460023007F
:00000001FF
