:100000000C94B4000C94DC000C94DC000C94A2035F
:100010000C947E030C945A030C94DC000C94DC00CA
:100020000C94DC000C94DC000C94DC000C94DC00E0
:100030000C94DC000C94DC000C94DC000C94DC00D0
:100040000C94EE040C94DC000C9401040C94C60394
:100050000C94DC000C94DC000C94DC000C94DC00B0
:100060000C9481070C94DC000000000024002700A1
:100070002A0000000007000201000003040600003F
:1000800000000000000000C201000100110011008A
:100090000C0000E100000A00250025002100009668
:1000A00000001900390039003600127A00001F00E4
:1000B0004600460044008070000022004D004D00C4
:1000C0004A00004B00003600750075007200403891
:1000D00000004A009C009C009900802500007200EE
:1000E000EC00EC00E900C0120000E900DA01DA01DE
:1000F000D70160090000D701B603B603B303B0040B
:100100000000B3036E076E076B07580200006E070E
:10011000DC0EDC0ED80E2C010000DC0EC11DC11D52
:10012000BE1D2D2D2D3E20000000000025002800C2
:100130002B00000000002300260029000404040412
:100140000404040402020202020203030303030381
:10015000010204081020408001020408102001025E
:1001600004081020670C2E0C11241FBECFEFD8E01E
:10017000DEBFCDBF11E0A0E0B1E0E4E8F0E202C0F4
:1001800005900D92A83EB107D9F725E0A8EEB1E0A1
:1001900001C01D92AE3EB207E1F710E0C3EBD0E024
:1001A00004C02197FE010E942F10C23BD107C9F75E
:1001B0000E94B8080C94970D0C94000020916B02DB
:1001C00030916C022817390739F48FB7F8941092E0
:1001D000690210926A028FBF089520916B023091DC
:1001E0006C022817390771F48091690220916A0224
:1001F00090E0805C9F4F821B910960E470E00E9458
:10020000D00F089580E090E0089520916B02309126
:100210006C0228173907B9F490916A02809169023B
:10022000981789F0E0916A02F0E0E75DFD4F808168
:1002300020916A0230E02F5F3F4F2F7333272093C6
:100240006A0290E008958FEF9FEF089520E00197F4
:100250002FEF8F3F9207D9F70895EF92FF920F93F8
:100260001F93CF93DF93C0916B02D0916C022097C4
:1002700009F450C09B8DEE85FF858D8591FF04C0EC
:100280009081892329F446C09081892309F042C0D6
:100290008B899C890E94260188E0E82EF12C10E0D1
:1002A00001E08D899E890E942601EE85FF8590815F
:1002B0008D85892311F0102B03C0802F8095182382
:1002C000000F81E0E81AF10861F78F89988D0E948C
:1002D00026018B8D81FD10958091690220916A0223
:1002E00090E001968F73992730E08217930779F099
:1002F000E0916902F0E0E75DFD4F108380916902B3
:1003000090E001968F7399278093690203C08B8DCB
:1003100081608B8FDF91CF911F910F91FF90EF90B4
:1003200008950F931F93CF93DF93FC01A685B785A4
:100330008D01005C1F4FE8018881998101968F73C0
:100340009927AD014E5B5F4FEA0128813981821701
:100350009307D1F3E80128813981A20FB31F6C9371
:10036000A685B785A05CBF4F11969C938E93A689F6
:10037000B7892C9181E090E0078C02C0880F991F0B
:100380000A94E2F7822B8C9381E081A30488F5899B
:10039000E02D80818064808381E090E0DF91CF91C7
:1003A0001F910F910895FC0181A1882329F0A48950
:1003B000B5898C9186FFFBCF11A20895FC01A4851D
:1003C000B585FD01E05CFF4F20813181329680814F
:1003D00091812817390779F080819181A80FB91F81
:1003E0008C91208131812F5F3F4F2F7333273183D1
:1003F000208390E008958FEF9FEF0895DC011C9615
:10040000ED91FC911D97DF01A05CBF4F2D913C91B8
:10041000119712968D919C9111972817390739F0F1
:100420008D919C91E80FF91F808190E008958FEFE6
:100430009FEF0895FC0124853585F901E05CFF4FAD
:1004400080819181329620813181821B930B8F7341
:10045000992708958FE093E00C941A020895DC0127
:10046000ED91FC910190F081E02D0994CF92DF9203
:10047000EF92FF920F931F93CF93DF936C01EB01E9
:100480007B01E40EF51E00E010E0CE15DF0561F003
:100490006991D601ED91FC910190F081E02DC601AA
:1004A0000995080F191FF1CFC801DF91CF911F9156
:1004B0000F91FF90EF90DF90CF9008953FB7F894A1
:1004C0008091E9019091EA01A091EB01B091EC01DA
:1004D00026B5A89B05C02F3F19F00196A11DB11D9F
:1004E0003FBFBA2FA92F982F8827820F911DA11DDA
:1004F000B11DBC01CD0142E0660F771F881F991F17
:100500004A95D1F70895CF92DF92EF92FF92CF9361
:10051000DF936B017C010E945E02EB01C114D104E8
:10052000E104F10479F00E945E026C1B7D0B683ED1
:100530007340A0F381E0C81AD108E108F108C8515E
:10054000DC4FECCFDF91CF91FF90EF90DF90CF9019
:100550000895DF92EF92FF920F931F93CF93DF9353
:10056000EC01298D3A8D2115310529F481E090E0C7
:100570009B838A835AC0162FDFB6F8948B8D81FD3A
:100580004DC0CE010E94AC08898D9A8D05960E94BF
:1005900026018B8D98E0E92EF12C01E081FF1AC035
:1005A000802F812321F0CE010E94AC0806C0E9898A
:1005B000FA8990818889892B8083898D9A8D0E9400
:1005C0002601000F81E0E81AF10851F7CE010E94E0
:1005D000AC081CC0802F812339F0E989FA89908109
:1005E0008889892B808303C0CE010E94AC08898D45
:1005F0009A8D0E942601000F81E0E81AF10851F758
:10060000E989FA8990818889892B8083DFBE898D69
:100610009A8D0E94260121E030E007C0E989FA891D
:1006200090818889892B8083AFCFC901DF91CF91D9
:100630001F910F91FF90EF90DF9008956115710564
:1006400079F0FB0101900020E9F73197AF01461BDB
:10065000570BDC01ED91FC910280F381E02D0994B0
:1006600080E090E008950F931F93CF93DF93EC0108
:1006700088819981009729F02A813B8126173707C5
:1006800088F48B016F5F7F4F0E94DC0E009761F052
:10069000998388831B830A832C813D81232B11F44A
:1006A000FC01108281E001C080E0DF91CF911F91B9
:1006B0000F9108951F920F920FB60F9211242F934E
:1006C0003F934F935F936F937F938F939F93AF93DA
:1006D000BF93EF93FF930E942D01FF91EF91BF9184
:1006E000AF919F918F917F916F915F914F913F91CA
:1006F0002F910F900FBE0F901F9018951F920F9281
:100700000FB60F9211242F933F934F935F936F93E4
:100710007F938F939F93AF93BF93EF93FF930E9429
:100720002D01FF91EF91BF91AF919F918F917F919B
:100730006F915F914F913F912F910F900FBE0F904E
:100740001F9018951F920F920FB60F9211242F939E
:100750003F934F935F936F937F938F939F93AF9349
:10076000BF93EF93FF930E942D01FF91EF91BF91F3
:10077000AF919F918F917F916F915F914F913F9139
:100780002F910F900FBE0F901F9018951F920F92F0
:100790000FB60F9211242F933F938F939F93EF9354
:1007A000FF932091C7023091C8028091C9029091B5
:1007B000CA022817390731F48091C1008F7D8093D8
:1007C000C10014C0E091C902F091CA02E957FD4F7F
:1007D00020818091C9029091CA0201968F73992756
:1007E0009093CA028093C9022093C600FF91EF91B3
:1007F0009F918F913F912F910F900FBE0F901F905F
:1008000018951F920F920FB60F9211242F934F93AA
:100810005F938F939F93EF93FF938091C00082FD2E
:100820001CC02091C60080910B0390910C0301968F
:100830008F73992740910D0350910E0384179507EC
:1008400071F0E0910B03F0910C03E553FD4F208311
:1008500090930C0380930B0302C08091C600FF911C
:10086000EF919F918F915F914F912F910F900FBEBC
:100870000F901F901895EF92FF920F931F93CF93B5
:10088000DF93EC017B018A01BA010E9433032881C6
:10089000398181110DC02115310519F0C9010E945E
:1008A000440E198218821D821C821B821A8206C085
:1008B0001D830C83B701C9010E94AF0FCE01DF91E8
:1008C000CF911F910F91FF90EF90089590E0FC0160
:1008D000EE58FF4F3491FC01E05BFE4F2491FC0188
:1008E000E45CFE4FE491EE2309F43BC0332339F17D
:1008F000333091F038F43130A9F0323001F584B55D
:100900008F7D12C0363091F03730A1F03430B9F419
:10091000809180008F7D03C0809180008F778093CD
:1009200080000DC084B58F7784BD09C08091B00070
:100930008F7703C08091B0008F7D8093B000F0E08E
:10094000EE0FFF1FE85DFE4FA591B4918FB7F894AD
:10095000EC91611103C020952E2301C02E2B2C9306
:100960008FBF0895CF93DF9390E0FC01E05BFE4FD3
:100970002491FC01E45CFE4F8491882361F190E0B6
:10098000880F991FFC01E859FF4FC591D491FC01D4
:10099000E85DFE4FA591B491611109C09FB7F8942D
:1009A0008881209582238883EC912E230BC06230AE
:1009B00061F49FB7F8943881822F809583238883D0
:1009C000EC912E2B2C939FBF06C08FB7F894E88133
:1009D0002E2B28838FBFDF91CF9108951F920F9206
:1009E0000FB60F9211242F933F938F939F93AF9342
:1009F000BF9380916D0290916E02A0916F02B091B1
:100A000070023091E80123E0230F2D3720F4019686
:100A1000A11DB11D05C026E8230F0296A11DB11D21
:100A20002093E80180936D0290936E02A0936F0271
:100A3000B09370028091E9019091EA01A091EB01DD
:100A4000B091EC010196A11DB11D8093E901909335
:100A5000EA01A093EB01B093EC01BF91AF919F919C
:100A60008F913F912F910F900FBE0F901F9018956F
:100A700085ED8093BC008091BC0084FDFCCF10927A
:100A8000760208950895E091720280917102E8174C
:100A900030F4F0E0EA57FA4F808190E008958FEF4C
:100AA0009FEF08959091720280917102981750F40F
:100AB000E92FF0E0EA57FA4F208130E09F5F9093F2
:100AC000720202C02FEF3FEFC901089580917102B9
:100AD00090E020917202821B91090895CF92DF92DB
:100AE000EF92FF920F931F93CF93DF937C018A01C4
:100AF00080917702882389F0EB016B01C40ED51E2B
:100B0000CC15DD05F1F06991D701ED91FC910190D3
:100B1000F081E02DC7010995F3CF842F413288F48D
:100B200090917602943069F440936105FB012FE3C4
:100B300035E0D9019A2F921B981718F491919D9343
:100B4000F9CFC801DF91CF911F910F91FF90EF90E6
:100B5000DF90CF900895209177022223C9F0209151
:100B60007A02203240F021E030E0FC01338322831E
:100B700080E090E0089580917802E82FF0E0E6535D
:100B8000FA4F60838F5F8093780280937A0209C066
:100B900080917602843029F481E08093610560932E
:100BA0003F0581E090E00895AF92BF92DF92EF920F
:100BB000FF920F931F93CF93DF938C01D62EDC010E
:100BC0001696ED90FC901797E114F10449F15C0141
:100BD000B9E5AB0EB11CF5018081811114C0E2E2D0
:100BE000F1E06491EF012196662351F0D701ED9178
:100BF000FC910190F081E02DC7010995FE01F1CF34
:100C000081E0F5018083D80116968D919C9117970C
:100C1000DC01ED91FC910190F081E02D6D2D0995A5
:100C2000F80184819581DC01ED91FC910190F081C6
:100C3000E02D6D2DDF91CF911F910F91FF90EF90DF
:100C4000DF90BF90AF90099420916B0230916C02BD
:100C50002817390781F490916A02809169029817E8
:100C600051F0E0916A02F0E0E75DFD4F8081082ECF
:100C7000000C990B08958FEF9FEF089520917A0251
:100C800090917902213208F046C08091760281115C
:100C9000FCCF32E03093760231E0309375023FEFC3
:100CA0003093C9051092C8052093C705AAECB5E09A
:100CB00047EA55E0FA013E2F341B321718F43D91F4
:100CC0003193F9CF1092A6052091A605990F922B8A
:100CD0009093A60590917402913041F410927402A1
:100CE0009091A6059093BB0095EC01C095EE909372
:100CF000BC00909176029230E1F39091C9059F3F3C
:100D000079F08091C905803241F08091C905803326
:100D100031F084E005C081E003C082E001C083E0DF
:100D20001092780210927A02109277020895CF936F
:100D3000C62F90917302906221E0209377029093E6
:100D400079021092780210927A02682F8BE792E073
:100D50000E94AB056C2F8BE792E00E94AB05CF9110
:100D60000C943E0690917302906221E020937702EA
:100D7000909379021092780210927A02682F8BE792
:100D800092E00E94AB050E943E0680917302909112
:100D900076029111FCCF91E09093760290937502C8
:100DA0002FEF2093C9051092C8051092C7059093A4
:100DB000A6059091A6058062880F892B8093A605D1
:100DC00080917402813041F4109274028091A605E2
:100DD0008093BB0085EC01C085EE8093BC008091C0
:100DE00076028130E1F38091C805811103C08091C2
:100DF000C80501C081E0A7EAB5E026E835E0F901C1
:100E00009E2F921B981718F49D919193F9CF1092F1
:100E10007202809371028BE792E00E94520508955E
:100E20000F931F93CF93DF9300913C0310913D03E9
:100E3000C0E0D0E02FB7F89480916D0290916E02DF
:100E4000A0916F02B09170022FBFF8018087918747
:100E5000A287B387D801ED91FC910680F781E02D40
:100E6000C801099597FD04C08A309105F9F427C09F
:100E70002FB7F89480916D0290916E02A0916F024D
:100E8000B09170022FBFF80140855185628573854E
:100E9000841B950BA60BB70B448155816681778126
:100EA00084179507A607B707A8F209C0FE01E85CFA
:100EB000FC4F81872196C035D10509F0BBCFFE01DB
:100EC000E85CFC4F118680913C0390913D03DC016E
:100ED000ED91FC910084F185E02D09950D9759F471
:100EE00080913C0390913D03DC01ED91FC910680E3
:100EF000F781E02D0995CE01DF91CF911F910F91E0
:100F000008951F920F920FB60F9211242F933F93C3
:100F10004F935F936F937F938F939F93AF93BF9301
:100F2000EF93FF938091B900887F803609F49CC0CD
:100F300068F5883209F45BC090F4803109F454C03C
:100F400038F4882309F4F3C0883009F44DC0F3C0A5
:100F5000883109F44CC0803209F45DC0ECC08034A3
:100F600009F468C048F4803309F455C0883309F0A7
:100F7000E2C08093C905D5C0803509F44FC08835DB
:100F800009F45DC0883409F0D6C0D3C0883909F4AB
:100F9000C4C0A8F4883709F467C038F4883609F467
:100FA00063C0803709F460C0C6C0883809F4B5C092
:100FB000803909F45FC0803809F0BDC05BC0803B58
:100FC00009F483C038F4803A09F466C0883A09F419
:100FD0007CC0B1C0803C09F4A4C0883C09F4A1C025
:100FE000883B09F487C0A7C08091A60510C09091E6
:100FF000C8058091C705981770F5E091C80581E094
:101000008E0F8093C805F0E0E955FA4F80818093F8
:10101000BB0085EC83C08093C9058BC0E091C805F7
:1010200081E08E0F8093C8058091BB00F0E0E95508
:10103000FA4F80839091C8058091C7056BC0E091FD
:10104000C80581E08E0F8093C8058091BB00F0E059
:10105000E955FA4F80838091750281116AC081E061
:101060008093740284EA5EC083E0809376021092DB
:101070008505CFCF80918505803208F04EC0E09184
:10108000850581E08E0F809385058091BB00F0E09F
:10109000EB59FA4F8083BDCF80918505803230F4C3
:1010A000E0918505F0E0EB59FA4F10820E94380577
:1010B0006091850570E0E0916305F091640585E637
:1010C00095E00995109285052CC084E08093760206
:1010D0001092620510926105E0915F05F091600544
:1010E000099580916105811105C081E080936105BA
:1010F00010923F05E091620581E08E0F80936205BA
:10110000F0E0E15CFA4F80818093BB009091620532
:1011100080916105981708F47CCF85E88093BC0026
:101120000AC085EC8093BC001092760204C0109235
:10113000C9050E943805FF91EF91BF91AF919F9132
:101140008F917F916F915F914F913F912F910F9070
:101150000FBE0F901F901895DC015196ED91FC91F8
:101160005297908150968C91809589238083089521
:10117000CF93DF9300D0CDB7DEB7789484B582608B
:1011800084BD84B5816084BD85B5826085BD85B52B
:10119000816085BD80916E00816080936E001092A9
:1011A0008100809181008260809381008091810024
:1011B00081608093810080918000816080938000B5
:1011C0008091B10084608093B1008091B000816013
:1011D0008093B00080917A00846080937A0080913F
:1011E0007A00826080937A0080917A008160809397
:1011F0007A0080917A00806880937A001092C10012
:1012000010923D0510923C0510923B0510923A0554
:101210001092390510923805109237051092360554
:1012200086E890E020E030E0FC0145915591659121
:101230007491403855426105710559F54CE0429F63
:10124000C001439F900D1124FC01E657FF4F2591EB
:1012500034913093370520933605FC01E457FF4F56
:10126000259134913093390520933805FC01E257DC
:10127000FF4F2591349130933B0520933A05FC01B3
:10128000E057FF4F8591949190933D0580933C05E5
:1012900007C02F5F3F4F0C962D30310509F0C4CFAA
:1012A00080913A0590913B05892B09F446C09091B5
:1012B0002F059631E0F520916800983050F031E02C
:1012C0009E3008F430E081E001C0880F3A95EAF7DB
:1012D00001C084E0822B80936800983038F09E3003
:1012E00040F0963148F4ECE6F0E008C0EDE6F0E0BE
:1012F00005C0EBE6F0E002C0E0E0F0E040819830AD
:1013000030F481E001C0880F9A95EAF70EC0292FCA
:1013100030E09E3018F42850310902C02E503109B7
:1013200081E001C0880F2A95EAF7842B80838091A1
:101330003C0590913D050E94260180916B029091A1
:101340006C028352954091F080913E058E7F809390
:101350003E058FB7F8941092690210926A0223E258
:1013600035E030936C0220936B028FBFE091230332
:10137000F091240381E090E09C0100902F0302C0D3
:10138000220F331F0A94E2F72083E0911F03F091AC
:1013900020031082E0912103F09122032FEC20839F
:1013A00010923003E0912503F091260340819C01C7
:1013B00000902B0302C0220F331F0A94E2F7242B64
:1013C0002083E0912503F091260340819C01009049
:1013D0002C0302C0220F331F0A94E2F7242B208330
:1013E000E0912503F091260340819C0100902D039C
:1013F00002C0220F331F0A94E2F7242B2083E091CE
:101400002503F0912603208100902E0302C0880F4F
:10141000991F0A94E2F780958223808361E08DE032
:101420000E94B20460E08DE00E9466041092730294
:1014300010927202109271021092780210927A0247
:101440001092760281E0809375021092740261E03E
:1014500082E10E94660461E083E10E94660480915B
:10146000B9008E7F8093B9008091B9008D7F809301
:10147000B90088E48093B80085E48093BC006FEFE6
:1014800080E00E9497066FEF81E00E94970610E0CF
:10149000412C512C3201439401E0183008F400E053
:1014A000802F0E94B206912F97707301620104C0D1
:1014B000CC0CDD1CEE1CFF1C9A95D2F76C2D6095B0
:1014C0006823802F0E949706183010F085E101C034
:1014D00084E10E94B206682F6C29183010F083E175
:1014E00001C082E10E9497061F5F1031A9F660E0FB
:1014F000809140030E94660461E0809140030E9455
:10150000B2046AE070E080E090E00E94830260E054
:10151000809140030E94B20468EE73E080E090E0A6
:101520000E9483020E9410070E9410076EEC71E077
:1015300081E493E00E94B60F892B51F06AEF70E0CE
:1015400080E090E00E9483020E9410070E94100732
:101550001092280222E0D22E33E0C32E4CE0B42EAB
:1015600080912802823009F463C128F48823A1F015
:10157000813049F170C1833009F4DBC0843009F057
:101580006AC160E084E00E94660461E084E00E9439
:101590006604109228024CC18FE093E00E941A0268
:1015A000892B09F458C18FE093E00E94DE01833556
:1015B00019F4C09228024FC1843409F04CC184E070
:1015C0008093280248C19FB7F89440916D025091D2
:1015D0006E0260916F02709170029FBF409324026F
:1015E00050932502609326027093270200911F02F8
:1015F00040902002509021026090220270902302BD
:101600004419550966097709E8E00E9F8001112405
:1016100001511E4FD8014D905C901197612C712C97
:10162000441655066606770608F015C11496ED9027
:10163000FC901597E094F0949091730290628093DF
:101640007702909379021092780210927A0262E106
:101650008BE792E00E94AB056E2D8BE792E00E9433
:10166000AB056F2D8BE792E00E94AB050E943E0612
:10167000F801828193818F3F9105E1F1B89E90013D
:10168000B99E300D1124C90180509F4F7C0180917B
:101690003C0390913D03DC01ED91FC910480F581C8
:1016A000E02D0995A0913C03B0913D03892B49F0B1
:1016B000ED91FC9111970680F781E02DCD01099500
:1016C000E6CF66EE71E0CD010E941E0300913C035F
:1016D00010913D03B701C8010E941E036DE0C801CF
:1016E0000E942F026AE0C8010E942F020E94100788
:1016F0000E9410078091240290912502A091260259
:10170000B09127028093200290932102A09322029D
:10171000B093230280911F028F5F80931F029091EC
:10172000EE01891708F497C010921F021092280248
:1017300092C08FE093E00E941A02892B09F48BC0BB
:101740008FE093E00E94DE019C01205331092A3092
:10175000310520F589831A820091350310913603F3
:101760000F5F1F4FB80181E393E00E94330388238A
:1017700009F452C020913103309132038091350336
:1017800090913603BE016F5F7F4F820F931F0E94BF
:10179000AF0F10933603009335033EC08C32910592
:1017A00061F5E0901F02F12CA090ED010A2D10E0F0
:1017B0008091310390913203009719F00E94700DCF
:1017C00003C060E070E0CB01F701EE0FFF1FEE0FEA
:1017D000FF1FE00FF11FEE0FFF1FE151FE4F71835E
:1017E0006083A394A092ED0140E050E067EE71E0C9
:1017F00081E393E00E943B040FC08435910551F4CE
:1018000080911F028093EE0110921F0281E080936D
:10181000280202C0D09228028091ED018430D8F0D5
:1018200080911F028F5F80931F021092ED0113C001
:1018300064E28FE093E00E942F026DE08FE093E07E
:101840000E942F026AE08FE093E00E942F0261E085
:101850008DE00E9466040E942A0282CE80913103AC
:10186000909132030E94440E82EC91E09093240503
:101870008093230520912F05263140F5283028F04C
:101880002E3030F0ECE6F0E005C0EDE6F0E002C00E
:10189000EBE6F0E03081283038F481E090E001C0E0
:1018A000880F2A95EAF70FC0422F50E02E3018F427
:1018B0004850510902C04E50510981E090E001C0EA
:1018C000880F4A95EAF780958323808308951092C4
:1018D0007E0210927D0288EE93E0A0E0B0E080935B
:1018E0007F0290938002A0938102B09382022AE942
:1018F00031E030937C0220937B021092120310920D
:1019000011038093130390931403A0931503B093D2
:1019100016032AEA31E03093100320930F032BECD7
:1019200032E030931C0320931B0327E832E030930E
:101930001E0320931D0325EC30E0309320032093F9
:101940001F0324EC30E0309322032093210320EC8A
:1019500030E0309324032093230321EC30E03093D4
:1019600026032093250322EC30E0309328032093B4
:10197000270326EC30E030932A032093290324E048
:1019800020932B0323E020932C0327E020932D03A7
:1019900025E020932E0321E020932F0310922605AB
:1019A000109225058093270590932805A09329057B
:1019B000B0932A0582EC91E090932405809323054F
:1019C000109237051092360510923905109238059D
:1019D00010923B0510923A0510923D0510923C057D
:1019E00080913E058E7F8D7F80933E0561E086E08D
:1019F0000E94B20461E086E00E946604E6E5F1E040
:101A0000E491E0933305E2E4F1E0E491F0E0EE0FDD
:101A1000FF1FE85DFE4F859194919093350580936B
:101A2000340560E085E00E94B20480913E0581FDAE
:101A300004C061E085E00E94660485E080932F0584
:101A4000E5E5F1E0E491E0933005E1E4F1E0E491D3
:101A5000F0E0EE0FFF1FEE5CFE4F859194919093A6
:101A600032058093310510923B0310923A038AEBC2
:101A700091E0909339038093380383E295E090934B
:101A80003D0380933C0310923F0310923E0384E099
:101A90008093400384EF91E0A0E0B0E080932705BD
:101AA00090932805A0932905B0932A0510929103DD
:101AB0001092920310923203109231031092340369
:101AC00010923303109236031092350310923703AD
:101AD00040E050E067EE71E081E393E00C943B045A
:101AE0001F93FC0199278827BC01E89411911032BB
:101AF000E9F3193010F01E30C8F31B3251F01D32DB
:101B000049F4689406C00E949A0D610F711D811DF1
:101B1000911D119110531A30B0F33EF490958095B9
:101B2000709561957F4F8F4F9F4F1F910895F89447
:101B30000C943510592F482F372F262F660F771FFB
:101B4000881F991F660F771F881F991F620F731FC9
:101B5000841F951F660F771F881F991F0895CF93C5
:101B6000DF938230910510F482E090E0E091EC0583
:101B7000F091ED0520E030E0C0E0D0E0309711F1C9
:101B80004081518148175907C0F04817590761F43F
:101B900082819381209719F09B838A832BC0909335
:101BA000ED058093EC0526C02115310519F042178B
:101BB000530718F49A01BE01DF01EF010280F3819F
:101BC000E02DDCCF2115310509F1281B390B24301C
:101BD000310590F412968D919C91139761157105C2
:101BE00021F0FB019383828304C09093ED058093E1
:101BF000EC05FD01329644C0FD01E20FF31F819315
:101C00009193225031092D933C933AC02091EA05DB
:101C10003091EB05232B41F42091920130919301F7
:101C20003093EB052093EA052091900130919101CA
:101C30002115310541F42DB73EB7409194015091E3
:101C40009501241B350BE091EA05F091EB05E217B5
:101C5000F307A0F42E1B3F0B2817390778F0AC01CF
:101C60004E5F5F4F2417350748F04E0F5F1F5093AC
:101C7000EB054093EA058193919302C0E0E0F0E028
:101C8000CF01DF91CF9108950F931F93CF93DF93EF
:101C9000009709F48CC0FC013297138212820091E4
:101CA000EC051091ED050115110581F420813181BC
:101CB000820F931F2091EA053091EB052817390711
:101CC00079F5F093EB05E093EA0571C0D80140E0A7
:101CD00050E0AE17BF0750F412962D913C91139728
:101CE000AD012115310509F1D901F3CF9D01DA01CB
:101CF0003383228360817181860F971F8217930738
:101D000069F4EC0128813981260F371F2E5F3F4F80
:101D1000318320838A819B8193838283452B29F49D
:101D2000F093ED05E093EC0542C01396FC93EE931F
:101D30001297ED01499159919E01240F351FE21729
:101D4000F30771F480819181840F951F029611969B
:101D50009C938E938281938113969C938E9312977A
:101D6000E0E0F0E0D80112968D919C9113970097D6
:101D700019F0F8018C01F6CF8D919C9198012E5F9E
:101D80003F4F820F931F2091EA053091EB052817F2
:101D9000390769F4309729F41092ED051092EC059B
:101DA00002C0138212821093EB050093EA05DF91C3
:101DB000CF911F910F910895A0E0B0E0E2EEFEE018
:101DC0000C94E80FEC01009721F4CB010E94AF0DB9
:101DD000B8C0FC01E60FF71F9C0122503109E21741
:101DE000F30708F4ACC0D9010D911C9111970617A7
:101DF0001707B0F00530110508F49FC0C80104971B
:101E00008617970708F499C002501109061B170B93
:101E1000019311936D937C93CF010E94440E8DC06A
:101E20005B01A01AB10A4C01800E911EA091EC0535
:101E3000B091ED0540E050E0E12CF12C109709F451
:101E40004AC0A815B905D1F56D907C901197630132
:101E500082E0C80ED11CCA14DB0480F1A3014A1928
:101E60005B096A0182E0C80ED11C1296BC901297E1
:101E70001396AC91B5E0CB16D10440F0B282A383A7
:101E800051834083D9016D937C930AC00E5F1F4F2D
:101E9000C301800F911FF90191838083EB2DFA2FED
:101EA000E114F10431F0D7011396FC93EE931297ED
:101EB00044C0F093ED05E093EC053FC08D919C91FB
:101EC00011974817590708F4AC017D0112960D903F
:101ED000BC91A02DB3CF8091EA059091EB058815B8
:101EE0009905E1F446175707C8F480919001909145
:101EF0009101009741F48DB79EB7409194015091A4
:101F00009501841B950BE817F907C8F4F093EB05CE
:101F1000E093EA05F901718360830FC0CB010E9451
:101F2000AF0D7C01009759F0A801BE010E94A60FD9
:101F3000CE010E94440EC70104C0CE0102C080E061
:101F400090E0CDB7DEB7EEE00C940410FB01DC01AD
:101F500002C001900D9241505040D8F70895FB0106
:101F6000DC0101900D920020E1F70895FB015191F1
:101F70005523A9F0BF01DC014D9145174111E1F74F
:101F800059F4CD010190002049F04D9140154111C7
:101F9000C9F3FB014111EFCF81E090E00197089573
:101FA00097FB072E16F4009407D077FD09D00E9406
:101FB0001B1007FC05D03EF4909581959F4F089526
:101FC000709561957F4F08952F923F924F925F9247
:101FD0006F927F928F929F92AF92BF92CF92DF9239
:101FE000EF92FF920F931F93CF93DF93CDB7DEB79E
:101FF000CA1BDB0B0FB6F894DEBF0FBECDBF099432
:102000002A88398848885F846E847D848C849B8488
:10201000AA84B984C884DF80EE80FD800C811B8196
:10202000AA81B981CE0FD11D0FB6F894DEBF0FBEC5
:10203000CDBFED010895AA1BBB1B51E107C0AA1F2C
:10204000BB1FA617B70710F0A61BB70B881F991F59
:102050005A95A9F780959095BC01CD010895EE0F92
:10206000FF1F0590F491E02D099410E0C3EBD0E040
:1020700004C0FE010E942F102196C43BD107C9F76E
:04208000F894FFCF02
:102084004C4F4F4E592020204F4747004259415250
:10209400442020204F474700435241434B202020F7
:1020A4004F47470049434544202020204F474700DD
:1020B4004C4F4E45202020204F4747004D4C494E61
:1020C400472020204F4747004D5443202020202004
:1020D4004F4747004E45574D432020204F47470068
:1020E40000000000000000000000000000000000EC
:1020F40000000000000000000000000000000000DC
:1021040000000000000000000000000000000000CB
:102114000000EE05200000000000AB056E0566051A
:1021240052054305420500000000910136021A02DF
:10213400DE01FE01D30100000000D40536020000D8
:102144000000A9023602ED0005012406DE00416408
:1021540061667275697420465820536F756E6420E9
:08216400426F6172640050003B
:00000001FF
