:100000000C94B4000C94DC000C94DC000C943603CB
:100010000C9412030C94EE020C94DC000C94DC00A3
:100020000C94DC000C94DC000C94DC000C94DC00E0
:100030000C94DC000C94DC000C94DC000C94DC00D0
:100040000C9457040C94DC000C9495030C945A0304
:100050000C94DC000C94DC000C94DC000C94DC00B0
:100060000C9413070C94DC0000000000240027000F
:100070002A0000000007000201000003040600003F
:1000800000000000000000C201000100110011008A
:100090000C0000E100000A00250025002100009668
:1000A00000001900390039003600127A00001F00E4
:1000B0004600460044008070000022004D004D00C4
:1000C0004A00004B00003600750075007200403891
:1000D00000004A009C009C009900802500007200EE
:1000E000EC00EC00E900C0120000E900DA01DA01DE
:1000F000D70160090000D701B603B603B303B0040B
:100100000000B3036E076E076B07580200006E070E
:10011000DC0EDC0ED80E2C010000DC0EC11DC11D52
:10012000BE1D2D2D2D3E20000000000025002800C2
:100130002B00000000002300260029000404040412
:100140000404040402020202020203030303030381
:10015000010204081020408001020408102001025E
:10016000040810208F0B5C0B11241FBECFEFD8E0CA
:10017000DEBFCDBF11E0A0E0B1E0EAEFF9E102C0DF
:1001800005900D92A43DB107D9F725E0A4EDB1E0AB
:1001900001C01D92AD39B207E1F710E0C3EBD0E02A
:1001A00004C02197FE010E94EA0CC23BD107C9F7A7
:1001B0000E945F080C94830C0C940000209125028F
:1001C000309126022817390739F48FB7F894109226
:1001D0002302109224028FBF0895209125023091AE
:1001E00026022817390771F48091230220912402F6
:1001F00090E0805C9F4F821B910960E470E00E9458
:10020000A00C089580E090E008952091250230919F
:10021000260228173907B9F490912402809123020D
:10022000981789F0E0912402F0E0ED51FE4F8081B3
:100230002091240230E02F5F3F4F2F73332720930C
:10024000240290E008958FEF9FEF089520E001973A
:100250002FEF8F3F9207D9F70895EF92FF920F93F8
:100260001F93CF93DF93C0912502D0912602209750
:1002700009F450C09B8DEE85FF858D8591FF04C0EC
:100280009081892329F446C09081892309F042C0D6
:100290008B899C890E94260188E0E82EF12C10E0D1
:1002A00001E08D899E890E942601EE85FF8590815F
:1002B0008D85892311F0102B03C0802F8095182382
:1002C000000F81E0E81AF10861F78F89988D0E948C
:1002D00026018B8D81FD10958091230220912402AF
:1002E00090E001968F73992730E08217930779F099
:1002F000E0912302F0E0ED51FE4F10838091230244
:1003000090E001968F7399278093230203C08B8D11
:1003100081608B8FDF91CF911F910F91FF90EF90B4
:1003200008950F931F93CF93DF93FC01A685B785A4
:100330008D01005C1F4FE8018881998101968F73C0
:100340009927AD014E5B5F4FEA0128813981821701
:100350009307D1F3E80128813981A20FB31F6C9371
:10036000A685B785A05CBF4F11969C938E93A689F6
:10037000B7892C9181E090E0078C02C0880F991F0B
:100380000A94E2F7822B8C9381E081A30488F5899B
:10039000E02D80818064808381E090E0DF91CF91C7
:1003A0001F910F910895FC0181A1882329F0A48950
:1003B000B5898C9186FFFBCF11A20895FC01A4851D
:1003C000B585FD01E05CFF4F20813181329680814F
:1003D00091812817390779F080819181A80FB91F81
:1003E0008C91208131812F5F3F4F2F7333273183D1
:1003F000208390E008958FEF9FEF0895DC011C9615
:10040000ED91FC911D97DF01A05CBF4F2D913C91B8
:10041000119712968D919C9111972817390739F0F1
:100420008D919C91E80FF91F808190E008958FEFE6
:100430009FEF0895FC0124853585F901E05CFF4FAD
:1004400080819181329620813181821B930B8F7341
:100450009927089589EC92E00C941A023FB7F8941A
:100460008091D5019091D601A091D701B091D8018A
:1004700026B5A89B05C02F3F19F00196A11DB11DFF
:100480003FBFBA2FA92F982F8827820F911DA11D3A
:10049000B11DBC01CD0142E0660F771F881F991F77
:1004A0004A95D1F70895CF92DF92EF92FF92CF93C2
:1004B000DF936B017C010E942E02EB01C114D10479
:1004C000E104F10479F00E942E026C1B7D0B683E62
:1004D0007340A0F381E0C81AD108E108F108C851BF
:1004E000DC4FECCFDF91CF91FF90EF90DF90CF907A
:1004F0000895DF92EF92FF920F931F93CF93DF93B4
:10050000EC01298D3A8D2115310529F481E090E027
:100510009B838A835AC0162FDFB6F8948B8D81FD9A
:100520004DC0CE010E945308898D9A8D05960E9478
:1005300026018B8D98E0E92EF12C01E081FF1AC095
:10054000802F812321F0CE010E94530806C0E98943
:10055000FA8990818889892B8083898D9A8D0E9460
:100560002601000F81E0E81AF10851F7CE010E9440
:1005700053081CC0802F812339F0E989FA899081C2
:100580008889892B808303C0CE010E945308898DFE
:100590009A8D0E942601000F81E0E81AF10851F7B8
:1005A000E989FA8990818889892B8083DFBE898DCA
:1005B0009A8D0E94260121E030E007C0E989FA897E
:1005C00090818889892B8083AFCFC901DF91CF913A
:1005D0001F910F91FF90EF90DF9008951F920F925F
:1005E0000FB60F9211242F933F934F935F936F9306
:1005F0007F938F939F93AF93BF93EF93FF930E944B
:100600002D01FF91EF91BF91AF919F918F917F91BC
:100610006F915F914F913F912F910F900FBE0F906F
:100620001F9018951F920F920FB60F9211242F93BF
:100630003F934F935F936F937F938F939F93AF936A
:10064000BF93EF93FF930E942D01FF91EF91BF9114
:10065000AF919F918F917F916F915F914F913F915A
:100660002F910F900FBE0F901F9018951F920F9211
:100670000FB60F9211242F933F934F935F936F9375
:100680007F938F939F93AF93BF93EF93FF930E94BA
:100690002D01FF91EF91BF91AF919F918F917F912C
:1006A0006F915F914F913F912F910F900FBE0F90DF
:1006B0001F9018951F920F920FB60F9211242F932F
:1006C0003F938F939F93EF93FF93209181023091FB
:1006D000820280918302909184022817390731F4B5
:1006E0008091C1008F7D8093C10014C0E09183028E
:1006F000F0918402EF5BFD4F208180918302909105
:10070000840201968F7399279093840280938302C9
:100710002093C600FF91EF919F918F913F912F9170
:100720000F900FBE0F901F9018951F920F920FB64B
:100730000F9211242F934F935F938F939F93EF9377
:10074000FF938091C00082FD1CC02091C600809163
:10075000C5029091C60201968F7399274091C702F6
:100760005091C8028417950771F0E091C502F0918D
:10077000C602EB57FD4F20839093C6028093C502BB
:1007800002C08091C600FF91EF919F918F915F9180
:100790004F912F910F900FBE0F901F90189590E0E2
:1007A000FC01EE58FF4F3491FC01E05BFE4F2491B9
:1007B000FC01E45CFE4FE491EE2309F43BC03323DB
:1007C00039F1333091F038F43130A9F0323001F59D
:1007D00084B58F7D12C0363091F03730A1F03430BF
:1007E000B9F4809180008F7D03C0809180008F7765
:1007F000809380000DC084B58F7784BD09C080913F
:10080000B0008F7703C08091B0008F7D8093B000DF
:10081000F0E0EE0FFF1FE85DFE4FA591B4918FB79A
:10082000F894EC91611103C020952E2301C02E2B6A
:100830002C938FBF0895CF93DF9390E0FC01E05B92
:10084000FE4F2491FC01E45CFE4F8491882361F10A
:1008500090E0880F991FFC01E859FF4FC591D49192
:10086000FC01E85DFE4FA591B491611109C09FB7ED
:10087000F8948881209582238883EC912E230BC0E5
:10088000623061F49FB7F8943881822F809583237A
:100890008883EC912E2B2C939FBF06C08FB7F894C2
:1008A000E8812E2B28838FBFDF91CF9108951F926F
:1008B0000F920FB60F9211242F933F938F939F9314
:1008C000AF93BF938091270290912802A0912902B3
:1008D000B0912A023091D40123E0230F2D3720F468
:1008E0000196A11DB11D05C026E8230F0296A11D8A
:1008F000B11D2093D4018093270290932802A093E6
:100900002902B0932A028091D5019091D601A0913D
:10091000D701B091D8010196A11DB11D8093D501D9
:100920009093D601A093D701B093D801BF91AF9116
:100930009F918F913F912F910F900FBE0F901F901D
:10094000189585ED8093BC008091BC0084FDFCCFA0
:100950001092300208950895E0912C0280912B02AC
:10096000E81730F4F0E0E75CFA4F808190E00895FA
:100970008FEF9FEF089590912C0280912B02981792
:1009800050F4E92FF0E0E75CFA4F208130E09F5F00
:1009900090932C0202C02FEF3FEFC9010895809180
:1009A0002B0290E020912C02821B91090895CF9296
:1009B000DF92EF92FF920F931F93CF93DF937C010F
:1009C0008A0180913102882389F0EB016B01C40E0A
:1009D000D51ECC15DD05F1F06991D701ED91FC91A3
:1009E0000190F081E02DC7010995F3CF842F4132AA
:1009F00088F490913002943069F440931405FB011F
:100A000022EF34E0D9019A2F921B981718F4919194
:100A10009D93F9CFC801DF91CF911F910F91FF9066
:100A2000EF90DF90CF900895209131022223C9F0FA
:100A300020913402203240F021E030E0FC01338389
:100A4000228380E090E0089580913202E82FF0E068
:100A5000E358FA4F60838F5F8093320280933402B1
:100A600009C080913002843029F481E0809314051C
:100A70006093F20481E090E008950895CF92DF92B0
:100A8000EF92FF920F931F93CF93DF936C01EB01D3
:100A90007B01E40EF51E00E010E0CE15DF0561F0ED
:100AA0006991D601ED91FC910190F081E02DC60194
:100AB0000995080F191FF1CFC801DF91CF911F9140
:100AC0000F91FF90EF90DF90CF900895AF92BF927B
:100AD000DF92EF92FF920F931F93CF93DF938C01DE
:100AE000D62EDC011696ED90FC901797E114F104D8
:100AF00049F15C01B9E5AB0EB11CF50180818111B2
:100B000014C0E2E2F1E06491EF012196662351F016
:100B1000D701ED91FC910190F081E02DC70109957D
:100B2000FE01F1CF81E0F5018083D80116968D9109
:100B30009C911797DC01ED91FC910190F081E02DE3
:100B40006D2D0995F80184819581DC01ED91FC9171
:100B50000190F081E02D6D2DDF91CF911F910F91CC
:100B6000FF90EF90DF90BF90AF9009942091250205
:100B7000309126022817390781F490912402809140
:100B80002302981751F0E0912402F0E0ED51FE4F5E
:100B90008081082E000C990B08958FEF9FEF089528
:100BA0002091340290913302213208F046C08091A6
:100BB00030028111FCCF32E03093300231E03093CB
:100BC0002F023FEF30937C0510927B0520937A052E
:100BD000ADE7B5E04AE555E0FA013E2F341B321788
:100BE00018F43D913193F9CF109259052091590590
:100BF000990F922B9093590590912E02913041F4C8
:100C000010922E02909159059093BB0095EC01C073
:100C100095EE9093BC00909130029230E1F3909168
:100C20007C059F3F79F080917C05803241F0809176
:100C30007C05803331F084E005C081E003C082E0B0
:100C400001C083E0109232021092340210923102FD
:100C50000895CF93C62F90912D02906221E02093AA
:100C60003102909333021092320210923402682FB4
:100C700085E392E00E9414056C2F85E392E00E94C8
:100C80001405CF910C94D00590912D02906221E033
:100C90002093310290933302109232021092340268
:100CA000682F85E392E00E9414050E94D005809190
:100CB0002D02909130029111FCCF91E0909330027F
:100CC00090932F022FEF20937C0510927B051092BA
:100CD0007A0590935905909159058062880F892B68
:100CE0008093590580912E02813041F410922E029A
:100CF000809159058093BB0085EC01C085EE8093FF
:100D0000BC00809130028130E1F380917B0581113C
:100D100003C080917B0501C081E0AAE5B5E029E32D
:100D200035E0F9019E2F921B981718F49D9191932D
:100D3000F9CF10922C0280932B0285E392E00E945F
:100D4000BB0408950F931F93CF93DF930091EF029D
:100D50001091F002C0E0D0E02FB7F8948091270204
:100D600090912802A0912902B0912A022FBFF80188
:100D700080879187A287B387D801ED91FC91068087
:100D8000F781E02DC801099597FD04C08A309105CF
:100D9000F9F427C02FB7F894809127029091280288
:100DA000A0912902B0912A022FBFF80140855185F8
:100DB00062857385841B950BA60BB70B4481558107
:100DC0006681778184179507A607B707A8F209C03F
:100DD000FE01E551FD4F81872196C035D10509F00F
:100DE000BBCFFE01E551FD4F11868091EF0290913E
:100DF000F002DC01ED91FC910084F185E02D099574
:100E00000D9759F48091EF029091F002DC01ED9181
:100E1000FC910680F781E02D0995CE01DF91CF91FD
:100E20001F910F9108951F920F920FB60F921124E8
:100E30002F933F934F935F936F937F938F939F93E2
:100E4000AF93BF93EF93FF938091B900887F803673
:100E500009F49CC068F5883209F45BC090F48031D5
:100E600009F454C038F4882309F4F3C0883009F435
:100E70004DC0F3C0883109F44CC0803209F45DC024
:100E8000ECC0803409F468C048F4803309F455C0DC
:100E9000883309F0E2C080937C05D5C0803509F421
:100EA0004FC0883509F45DC0883409F0D6C0D3C07E
:100EB000883909F4C4C0A8F4883709F467C038F445
:100EC000883609F463C0803709F460C0C6C088382A
:100ED00009F4B5C0803909F45FC0803809F0BDC09D
:100EE0005BC0803B09F483C038F4803A09F466C0E3
:100EF000883A09F47CC0B1C0803C09F4A4C0883CA5
:100F000009F4A1C0883B09F487C0A7C080915905A6
:100F100010C090917B0580917A05981770F5E0914B
:100F20007B0581E08E0F80937B05F0E0E65AFA4F57
:100F300080818093BB0085EC83C080937C058BC04F
:100F4000E0917B0581E08E0F80937B058091BB0053
:100F5000F0E0E65AFA4F808390917B0580917A0504
:100F60006BC0E0917B0581E08E0F80937B058091C3
:100F7000BB00F0E0E65AFA4F808380912F02811186
:100F80006AC081E080932E0284EA5EC083E0809391
:100F9000300210923805CFCF80913805803208F0AA
:100FA0004EC0E091380581E08E0F80933805809126
:100FB000BB00F0E0E85EFA4F8083BDCF809138053A
:100FC000803230F4E0913805F0E0E85EFA4F1082AC
:100FD0000E94A1046091380570E0E0911605F0913F
:100FE000170588E195E00995109238052CC084E03A
:100FF000809330021092150510921405E0911205AD
:10100000F0911305099580911405811105C081E0C7
:10101000809314051092F204E091150581E08E0F83
:1010200080931505F0E0EE50FB4F80818093BB006C
:101030009091150580911405981708F47CCF85E8E8
:101040008093BC000AC085EC8093BC0010923002F3
:1010500004C010927C050E94A104FF91EF91BF9102
:10106000AF919F918F917F916F915F914F913F9140
:101070002F910F900FBE0F901F901895611571055D
:1010800079F0FB0101900020E9F73197AF01461B91
:10109000570BDC01ED91FC910280F381E02D099466
:1010A00080E090E00895DC015196ED91FC9152971B
:1010B000908150968C918095892380830895CF9359
:1010C000DF93CDB7DEB7A1970FB6F894DEBF0FBEA2
:1010D000CDBF789484B5826084BD84B5816084BDC1
:1010E00085B5826085BD85B5816085BD80916E00C6
:1010F000816080936E0010928100809181008260F7
:101100008093810080918100816080938100809133
:1011100080008160809380008091B1008460809322
:10112000B1008091B00081608093B00080917A001E
:10113000846080937A0080917A00826080937A0044
:1011400080917A00816080937A0080917A00806833
:1011500080937A001092C1001092F0041092EF0474
:101160001092EE041092ED041092EC041092EB0435
:101170001092EA041092E90486E890E020E030E062
:10118000FC01459155916591749140385542610536
:10119000710559F54CE0429FC001439F900D112409
:1011A000FC01E657FF4F259134913093EA042093D8
:1011B000E904FC01E457FF4F259134913093EC048E
:1011C0002093EB04FC01E257FF4F259134913093BB
:1011D000EE042093ED04FC01E057FF4F85919491BC
:1011E0009093F0048093EF0407C02F5F3F4F0C965D
:1011F0002D30310509F0C4CF8091ED049091EE04BB
:10120000892B09F446C09091E2049631E0F52091D3
:101210006800983050F031E09E3008F430E081E012
:1012200001C0880F3A95EAF701C084E0822B8093D1
:101230006800983038F09E3040F0963148F4ECE683
:10124000F0E008C0EDE6F0E005C0EBE6F0E002C03B
:10125000E0E0F0E04081983030F481E001C0880F98
:101260009A95EAF70EC0292F30E09E3018F42850E6
:10127000310902C02E50310981E001C0880F2A9542
:10128000EAF7842B80838091EF049091F0040E9410
:1012900026018091250290912602865D944091F06E
:1012A0008091F1048E7F8093F1048FB7F8941092AF
:1012B00023021092240226ED34E03093260220937C
:1012C00025028FBFE091DD02F091DE0281E090E027
:1012D0009C010090E90202C0220F331F0A94E2F73A
:1012E0002083E091D902F091DA021082E091DB02D2
:1012F000F091DC022FEC20831092EA02E091DF02F1
:10130000F091E00240819C010090E50202C0220FB2
:10131000331F0A94E2F7242B2083E091DF02F0913F
:10132000E00240819C010090E60202C0220F331FC0
:101330000A94E2F7242B2083E091DF02F091E0028F
:1013400040819C010090E70202C0220F331F0A94E3
:10135000E2F7242B2083E091DF02F091E00220816C
:101360000090E80202C0880F991F0A94E2F7809566
:101370008223808361E08DE00E941B0460E08DE0A9
:101380000E94CF0310922D0210922C0210922B0279
:1013900010923202109234021092300281E0809357
:1013A0002F0210922E0261E082E10E94CF0361E0E1
:1013B00083E10E94CF038091B9008E7F8093B900B2
:1013C0008091B9008D7F8093B90088E48093B80044
:1013D00085E48093BC006FEF80E00E9429066FEFE8
:1013E00081E00E94290610E0412C512C32014394E7
:1013F00001E0183008F400E0802F0E944406912F8D
:1014000097707301620104C0CC0CDD1CEE1CFF1C44
:101410009A95D2F76C2D60956823802F0E9429063B
:10142000183010F085E101C084E10E944406682F65
:101430006C29183010F083E101C082E10E94290676
:101440001F5F1031A9F660E08091F3020E94CF0384
:1014500061E08091F3020E941B046AE070E080E08A
:1014600090E00E94530260E08091F3020E941B040E
:1014700068EE73E080E090E00E9453020E94A206B2
:101480000E94A20669EB71E084EF92E00E94860C54
:10149000892B51F06AEF70E080E090E00E945302E7
:1014A0000E94A2060E94A20681E08093E2018AE0E7
:1014B000482E512C612C712C8091E201813051F029
:1014C00020F0833009F4DCC0F4C061E08DE00E94BC
:1014D000CF03EFC09FB7F8944091270250912802A4
:1014E0006091290270912A029FBF4093DE015093C0
:1014F000DF016093E0017093E1010091D901C09098
:10150000DA01D090DB01E090DC01F090DD014C19B4
:101510005D096E097F09E8E00E9F800111240F5FCD
:101520001E4FD801CD90DC901197E12CF12CC41600
:10153000D506E606F70608F0BCC01296ED90FC90C2
:101540001397E094F09490912D0290628093310271
:1015500090933302109232021092340262E185E3DA
:1015600092E00E9414056E2D85E392E00E9414051E
:101570006F2D85E392E00E9414050E94D005F801CA
:10158000C480D580FFEFCF16D10409F45FC08091ED
:10159000EF029091F002DC01ED91FC910480F58165
:1015A000E02D0995A091EF02B091F002892B49F04E
:1015B000ED91FC9111970680F781E02DCD01099501
:1015C000E6CF61ED71E0CD010E943E080091EF028F
:1015D0001091F002D12CE12CF12C19A2FE01B19650
:1015E0005F01C701B601A30192010E94B40C8C2DCA
:1015F000FAE02F9F8019112491E0A91AB1088A30CE
:1016000014F4805D01C0895CD5018C9369017A0175
:10161000232B242B252B29F7B501C8010E943E0856
:10162000D801ED91FC910190F081E02D6DE0C801B1
:101630000995D801ED91FC910190F081E02D6AE0CF
:10164000C80109950E94A2060E94A2068091DE01AF
:101650009091DF01A091E001B091E1018093DA0166
:101660009093DB01A093DC01B093DD018091D9015F
:101670008F5F8093D9018031E0F01092E20119C0B0
:10168000809100018A3091F489EC92E00E941A0264
:1016900041977CF089EC92E00E94DE019C013327A7
:1016A00027363105BCF380930001F4CF81E08093AD
:1016B000E2010E942A0200CF8DEA91E09093D704C4
:1016C0008093D6042091E204263140F5283028F09A
:1016D0002E3030F0ECE6F0E005C0EDE6F0E002C0C0
:1016E000EBE6F0E03081283038F481E090E001C092
:1016F000880F2A95EAF70FC0422F50E02E3018F4D9
:101700004850510902C04E50510981E090E001C09B
:10171000880F4A95EAF78095832380830895109275
:1017200038021092370288EE93E0A0E0B0E0809398
:10173000390290933A02A0933B02B0933C0225E811
:1017400031E030933602209335021092CC02109291
:10175000CB028093CD029093CE02A093CF02B093A0
:10176000D00225E931E03093CA022093C90225E86E
:1017700032E03093D6022093D50221E432E0309358
:10178000D8022093D70225EC30E03093DA02209380
:10179000D90224EC30E03093DC022093DB0220EC11
:1017A00030E03093DE022093DD0221EC30E0309314
:1017B000E0022093DF0222EC30E03093E20220933B
:1017C000E10226EC30E03093E4022093E30224E0CF
:1017D0002093E50223E02093E60227E02093E7022E
:1017E00025E02093E80221E02093E9021092D90439
:1017F0001092D8048093DA049093DB04A093DC0465
:10180000B093DD048DEA91E09093D7048093D604E1
:101810001092EA041092E9041092EC041092EB0486
:101820001092EE041092ED041092F0041092EF0466
:101830008091F1048E7F8D7F8093F10461E086E0DA
:101840000E941B0461E086E00E94CF03E6E5F1E020
:10185000E491E093E604E2E4F1E0E491F0E0EE0FDD
:10186000FF1FE85DFE4F859194919093E80480936B
:10187000E70460E085E00E941B048091F10481FD93
:1018800004C061E085E00E94CF0385E08093E2041C
:10189000E5E5F1E0E491E093E304E1E4F1E0E491D3
:1018A000F0E0EE0FFF1FEE5CFE4F85919491909358
:1018B000E5048093E4041092EE021092ED0285EAB2
:1018C00091E09093EC028093EB0286ED94E090938C
:1018D000F0028093EF021092F2021092F10284E083
:1018E0008093F30284EF91E0A0E0B0E08093DA040B
:1018F0009093DB04A093DC04B093DD0410924403C6
:10190000109245030895F8940C94F00CFB0151914A
:101910005523A9F0BF01DC014D9145174111E1F7B5
:1019200059F4CD010190002049F04D91401541112D
:10193000C9F3FB014111EFCF81E090E001970895D9
:1019400097FB072E16F4009407D077FD09D00E946C
:10195000D60C07FC05D03EF4909581959F4F0895D5
:10196000709561957F4F0895A1E21A2EAA1BBB1BAB
:10197000FD010DC0AA1FBB1FEE1FFF1FA217B3075B
:10198000E407F50720F0A21BB30BE40BF50B661F71
:10199000771F881F991F1A9469F760957095809535
:1019A00090959B01AC01BD01CF010895AA1BBB1B03
:1019B00051E107C0AA1FBB1FA617B70710F0A61B4F
:1019C000B70B881F991F5A95A9F780959095BC0170
:1019D000CD010895EE0FFF1F0590F491E02D0994BD
:1019E00010E0C3EBD0E004C0FE010E94EA0C219697
:0A19F000C43BD107C9F7F894FFCFFC
:1019FA000AE8030100FF000000E8030200FF0000FC
:101A0A0000E8030300FF000000E8030F00000000E5
:101A1A0000E8030000FF00000000000000000000D2
:101A2A0000000000000000000000000000000000AC
:101A3A00000000000000000000000000000000009C
:101A4A00000000000000000000000000000000008C
:101A5A00000000000000000000000000000000007C
:101A6A00000000000000000000000000000000006C
:101A7A0000000000001405D704CF04BB04AC04AB7B
:101A8A00040000000091013E051A02DE01FE01D3A6
:101A9A00010000000066053E050000000079023ED4
:101AAA0005ED000501B605DE0041646166727569DF
:101ABA007420465820536F756E6420426F617264B9
:041ACA0000230000F5
:00000001FF
