:100000000C94B4000C94DC000C94DC000C94CB0633
:100010000C94A7060C9483060C94DC000C94DC0072
:100020000C94DC000C94DC000C94DC000C94DC00E0
:100030000C94DC000C94DC000C94DC000C94DC00D0
:100040000C9439060C94DC000C94DC000C94DC005D
:100050000C94DC000C94DC000C94DC000C94DC00B0
:100060000C940E050C94DC0000C20100010011008C
:1000700011000C0000E100000A002500250021000D
:10008000009600001900390039003600127A00008D
:100090001F004600460044008070000022004D0012
:1000A0004D004A00004B00003600750075007200DC
:1000B000403800004A009C009C0099008025000008
:1000C0007200EC00EC00E900C0120000E900DA0167
:1000D000DA01D70160090000D701B603B603B30304
:1000E000B0040000B3036E076E076B0758020000F0
:1000F0006E07DC0EDC0ED80E2C010000DC0EC11DDC
:10010000C11DBE1D2D2D2D3E20000000000024002D
:1001100027002A0000000007000201000003040677
:100120000000000000000000000000002500280082
:100130002B00000000002300260029000404040412
:100140000404040402020202020203030303030381
:10015000010204081020408001020408102001025E
:1001600004081020EF06C90911241FBECFEFD8E004
:10017000DEBFCDBF11E0A0E0B1E0E8EAF4E102C0EB
:1001800005900D92A234B107D9F724E0A2E4B1E0C2
:1001900001C01D92A835B207E1F710E0C3EBD0E033
:1001A00004C02197FE010E94410AC23BD107C9F752
:1001B0000E9492070C94FC090C94000020914402C8
:1001C00090914302213208F046C0809120028111B3
:1001D000FCCF32E03093200231E030931F023FEF3A
:1001E00030931E0210921D0220931C02A3E2B2E083
:1001F0004CEF51E0FA013E2F341B321718F43D91B9
:100200003193F9CF1092FB012091FB01990F922BB2
:100210009093FB019091FA01913041F41092FA0110
:100220009091FB019093BB0095EC01C095EE9093EB
:10023000BC00909120029230E1F390911E029F3F0A
:1002400079F080911E02803241F080911E0280334D
:1002500031F084E005C081E003C082E001C083E0AA
:1002600010922202109244021092210208950F93DC
:100270001F93CF93DF930091550210915602C0E077
:10028000D0E02FB7F8948091F5019091F601A091FC
:10029000F701B091F8012FBFF80180879187A287FD
:1002A000B387D801ED91FC910680F781E02DC8015C
:1002B000099597FD04C08A309105F9F427C02FB73E
:1002C000F8948091F5019091F601A091F701B09119
:1002D000F8012FBFF8014085518562857385841B25
:1002E000950BA60BB70B44815581668177818417E6
:1002F0009507A607B707A8F209C0FE01EF5AFD4F00
:1003000081872196C035D10509F0BBCFFE01EF5A98
:10031000FD4F11868091550290915602DC01ED91BE
:10032000FC910084F185E02D09950D9759F4809199
:10033000550290915602DC01ED91FC910680F78107
:10034000E02D0995CE01DF91CF911F910F91089576
:1003500085ED8093BC008091BC0084FDFCCF1092A1
:10036000200208950895E091AD018091AC01E81755
:1003700030F4F0E0E457FE4F808190E008958FEF75
:100380009FEF08959091AD018091AC01981750F4C2
:10039000E92FF0E0E457FE4F208130E09F5F90931B
:1003A000AD0102C02FEF3FEFC90108958091AC016C
:1003B00090E02091AD01821B91090895CF92DF92C8
:1003C000EF92FF920F931F93CF93DF937C018A01EB
:1003D00080912102882389F0EB016B01C40ED51EA8
:1003E000CC15DD05F1F06991D701ED91FC910190FB
:1003F000F081E02DC7010995F3CF842F413288F4B5
:1004000090912002943069F44093D001FB012EEAD0
:1004100031E0D9019A2F921B981718F491919D936E
:10042000F9CFC801DF91CF911F910F91FF90EF900D
:10043000DF90CF900895209121022223C9F02091CE
:100440004402203240F021E030E0FC01338322837B
:1004500080E090E0089580912202E82FF0E0ED5DC9
:10046000FD4F60838F5F809322028093440209C016
:1004700080912002843029F481E08093D001609340
:10048000AE0181E090E00895CF93C62F9091F901DD
:10049000906221E020932102909343021092220265
:1004A00010924402682F85E492E00E941B026C2F98
:1004B00085E492E00E941B02CF910C94DE00089527
:1004C000CF92DF92EF92FF920F931F93CF93DF9320
:1004D0006C01EB017B01E40EF51E00E010E0CE158F
:1004E000DF0561F06991D601ED91FC910190F081F9
:1004F000E02DC6010995080F191FF1CFC801DF9142
:10050000CF911F910F91FF90EF90DF90CF900895C2
:1005100090E0FC01EC5EFE4F3491FC01E05BFE4F8D
:100520002491FC01E45CFE4FE491EE2309F43BC00E
:10053000332339F1333091F038F43130A9F03230CF
:1005400001F584B58F7D12C0363091F03730A1F0BF
:100550003430B9F4809180008F7D03C08091800099
:100560008F77809380000DC084B58F7784BD09C0DC
:100570008091B0008F7703C08091B0008F7D809311
:10058000B000F0E0EE0FFF1FE85DFE4FA591B491C3
:100590008FB7F894EC91611103C020952E2301C010
:1005A0002E2B2C938FBF0895CF93DF9390E0FC0107
:1005B000E05BFE4F2491FC01E45CFE4F84918823B4
:1005C00061F190E0880F991FFC01E65FFE4FC59135
:1005D000D491FC01E85DFE4FA591B491611109C071
:1005E0009FB7F8948881209582238883EC912E23ED
:1005F0000BC0623061F49FB7F8943881822F8095E8
:1006000083238883EC912E2B2C939FBF06C08FB73A
:10061000F894E8812E2B28838FBFDF91CF91089526
:100620003FB7F8948091880190918901A0918A0147
:10063000B0918B0126B5A89B05C02F3F19F00196FC
:10064000A11DB11D3FBFBA2FA92F982F8827820F58
:10065000911DA11DB11DBC01CD0142E0660F771FA8
:10066000881F991F4A95D1F70895CF92DF92EF9294
:10067000FF92CF93DF936B017C010E941003EB018B
:10068000C114D104E104F10479F00E9410036C1B41
:100690007D0B683E7340A0F381E0C81AD108E108E1
:1006A000F108C851DC4FECCFDF91CF91FF90EF9074
:1006B000DF90CF900895AF92BF92DF92EF92FF92BA
:1006C0000F931F93CF93DF938C01D62EDC011696E8
:1006D000ED90FC901797E114F10449F15C01B9E544
:1006E000AB0EB11CF5018081811114C0E4E0F1E092
:1006F0006491EF012196662351F0D701ED91FC91B1
:100700000190F081E02DC7010995FE01F1CF81E054
:10071000F5018083D80116968D919C911797DC0185
:10072000ED91FC910190F081E02D6D2D0995F8017E
:1007300084819581DC01ED91FC910190F081E02DA7
:100740006D2DDF91CF911F910F91FF90EF90DF9072
:10075000BF90AF900994DC015196ED91FC915297B6
:10076000908150968C918095892380830895209163
:100770008501309186012817390781F49091840111
:1007800080918301981751F0E0918401F0E0ED5BD6
:10079000FE4F8081082E000C990B08958FEF9FEF7C
:1007A000089520918501309186012817390739F481
:1007B0008FB7F89410928301109284018FBF08952F
:1007C00020918501309186012817390771F48091B5
:1007D00083012091840190E0805C9F4F821B9109EE
:1007E00060E470E00E94190A089580E090E00895A6
:1007F000209185013091860128173907B9F490912D
:10080000840180918301981789F0E0918401F0E0E0
:10081000ED5BFE4F80812091840130E02F5F3F4FE0
:100820002F7333272093840190E008958FEF9FEF7B
:10083000089520E001972FEF8F3F9207D9F7089591
:10084000EF92FF920F931F93CF93DF93C091850197
:10085000D0918601209709F450C09B8DEE85FF85CD
:100860008D8591FF04C09081892329F446C0908131
:10087000892309F042C08B899C890E94190488E071
:10088000E82EF12C10E001E08D899E890E94190468
:10089000EE85FF8590818D85892311F0102B03C093
:1008A000802F80951823000F81E0E81AF10861F786
:1008B0008F89988D0E9419048B8D81FD10958091F0
:1008C00083012091840190E001968F73992730E095
:1008D0008217930779F0E0918301F0E0ED5BFE4F22
:1008E00010838091830190E001968F739927809304
:1008F000830103C08B8D81608B8FDF91CF911F911E
:100900000F91FF90EF900895DF92EF92FF920F9377
:100910001F93CF93DF93EC01298D3A8D211531057B
:1009200029F481E090E09B838A835AC0162FDFB6BA
:10093000F8948B8D81FD4DC0CE010E94AB03898D53
:100940009A8D05960E9419048B8D98E0E92EF12C62
:1009500001E081FF1AC0802F812321F0CE010E9487
:10096000AB0306C0E989FA8990818889892B808345
:10097000898D9A8D0E941904000F81E0E81AF10810
:1009800051F7CE010E94AB031CC0802F812339F0A8
:10099000E989FA8990818889892B808303C0CE01F7
:1009A0000E94AB03898D9A8D0E941904000F81E08B
:1009B000E81AF10851F7E989FA8990818889892B29
:1009C0008083DFBE898D9A8D0E94190421E030E07A
:1009D00007C0E989FA8990818889892B8083AFCF04
:1009E000C901DF91CF911F910F91FF90EF90DF90A0
:1009F00008956115710579F0FB0101900020E9F778
:100A00003197AF01461B570BDC01ED91FC91028041
:100A1000F381E02D099480E090E008951F920F92F9
:100A20000FB60F9211242F933F934F935F936F93C1
:100A30007F938F939F93AF93BF93EF93FF93809197
:100A4000B900887F803609F49CC068F5883209F4C3
:100A50005BC090F4803109F454C038F4882309F461
:100A6000F3C0883009F44DC0F3C0883109F44CC09C
:100A7000803209F45DC0ECC0803409F468C048F4E9
:100A8000803309F455C0883309F0E2C080931E0218
:100A9000D5C0803509F44FC0883509F45DC088346D
:100AA00009F0D6C0D3C0883909F4C4C0A8F4883787
:100AB00009F467C038F4883609F463C0803709F454
:100AC00060C0C6C0883809F4B5C0803909F45FC079
:100AD000803809F0BDC05BC0803B09F483C038F4A6
:100AE000803A09F466C0883A09F47CC0B1C0803C01
:100AF00009F4A4C0883C09F4A1C0883B09F487C06C
:100B0000A7C08091FB0110C090911D0280911C0232
:100B1000981770F5E0911D0281E08E0F80931D0201
:100B2000F0E0E450FE4F80818093BB0085EC83C0F1
:100B300080931E028BC0E0911D0281E08E0F809396
:100B40001D028091BB00F0E0E450FE4F8083909145
:100B50001D0280911C026BC0E0911D0281E08E0F8E
:100B600080931D028091BB00F0E0E450FE4F808333
:100B700080911F0281116AC081E08093FA0184EAAA
:100B80005EC083E0809320021092F401CFCF809169
:100B9000F401803208F04EC0E091F40181E08E0F44
:100BA0008093F4018091BB00F0E0EC52FE4F808313
:100BB000BDCF8091F401803230F4E091F401F0E097
:100BC000EC52FE4F10820E94A8016091F40170E087
:100BD000E091D201F091D30184ED91E0099510925A
:100BE000F4012CC084E0809320021092D101109275
:100BF000D001E091CE01F091CF0109958091D00113
:100C0000811105C081E08093D0011092AE01E09186
:100C1000D10181E08E0F8093D101F0E0E255FE4FCB
:100C200080818093BB009091D1018091D001981771
:100C300008F47CCF85E88093BC000AC085EC8093E3
:100C4000BC001092200204C010921E020E94A80153
:100C5000FF91EF91BF91AF919F918F917F916F9194
:100C60005F914F913F912F910F900FBE0F901F906A
:100C700018951F920F920FB60F9211242F933F9346
:100C80008F939F93AF93BF938091F5019091F6015D
:100C9000A091F701B091F8013091870123E0230F73
:100CA0002D3720F40196A11DB11D05C026E8230FA4
:100CB0000296A11DB11D209387018093F5019093A9
:100CC000F601A093F701B093F8018091880190910B
:100CD0008901A0918A01B0918B010196A11DB11DDE
:100CE0008093880190938901A0938A01B0938B012E
:100CF000BF91AF919F918F913F912F910F900FBE18
:100D00000F901F9018951F920F920FB60F921124FB
:100D10002F933F934F935F936F937F938F939F9303
:100D2000AF93BF93EF93FF930E942004FF91EF9145
:100D3000BF91AF919F918F917F916F915F914F91F3
:100D40003F912F910F900FBE0F901F9018951F92FB
:100D50000F920FB60F9211242F933F934F935F93EF
:100D60006F937F938F939F93AF93BF93EF93FF9373
:100D70000E942004FF91EF91BF91AF919F918F91BD
:100D80007F916F915F914F913F912F910F900FBE87
:100D90000F901F9018951F920F920FB60F9211246B
:100DA0002F933F934F935F936F937F938F939F9373
:100DB000AF93BF93EF93FF930E942004FF91EF91B5
:100DC000BF91AF919F918F917F916F915F914F9163
:100DD0003F912F910F900FBE0F901F90189510927A
:100DE00048021092470288EE93E0A0E0B0E08093C2
:100DF000490290934A02A0934B02B0934C0224E024
:100E000031E0309346022093450210923F04109245
:100E10003E048093400490934104A0934204B09315
:100E200043048CE191E090933D0480933C04109244
:100E3000500410924F0410925204109251041092D8
:100E40005404109253041092560410925504809149
:100E500057048E7F8D7F8093570461E086E00E9467
:100E6000D40261E086E00E948802E6E5F1E0E491C8
:100E7000E0934C04E2E4F1E0E491F0E0EE0FFF1FB8
:100E8000E85DFE4F8591949190934E0480934D04BC
:100E900060E085E00E94D4028091570481FD04C087
:100EA00061E085E00E94880285E080934804E5E5E2
:100EB000F1E0E491E0934904E1E4F1E0E491F0E051
:100EC000EE0FFF1FEE5CFE4F8591949190934B04C3
:100ED00080934A04109254021092530284E191E0EC
:100EE00090935202809351028CE394E090935602C7
:100EF00080935502109258021092570284E080931A
:100F0000590284EF91E0A0E0B0E080934004909318
:100F10004104A0934204B09343041092AA02109299
:100F2000AB020895CF93DF93CDB7DEB7A1970FB68D
:100F3000F894DEBF0FBECDBF789484B5826084BDC7
:100F400084B5816084BD85B5826085BD85B58160CD
:100F500085BD80916E00816080936E00109281004B
:100F60008091810082608093810080918100816006
:100F700080938100809180008160809380008091C7
:100F8000B10084608093B1008091B0008160809353
:100F9000B00080917A00846080937A0080917A001A
:100FA000826080937A0080917A00816080937A00D9
:100FB00080917A00806880937A001092C10010922C
:100FC0005604109255041092540410925304109237
:100FD0005204109251041092500410924F0488E66B
:100FE00090E020E030E0FC014591559165917491CD
:100FF000403855426105710559F54CE0429FC001EA
:10100000439F900D1124FC01E459FF4F2591349129
:101010003093500420934F04FC01E259FF4F259177
:1010200034913093520420935104FC01E059FF4F56
:10103000259134913093540420935304FC01EE58CD
:10104000FF4F85919491909356048093550407C067
:101050002F5F3F4F0C962D30310509F0C4CF8091A2
:10106000530490915404892B09F446C0909148048C
:101070009631E0F520916800983050F031E09E30D4
:1010800008F430E081E001C0880F3A95EAF701C02A
:1010900084E0822B80936800983038F09E3040F0D6
:1010A000963148F4ECE6F0E008C0EDE6F0E005C06B
:1010B000EBE6F0E002C0E0E0F0E04081983030F490
:1010C00081E001C0880F9A95EAF70EC0292F30E021
:1010D0009E3018F42850310902C02E50310981E0A9
:1010E00001C0880F2A95EAF7842B808380915504EC
:1010F000909156040E941904809185019091860177
:101100008C53944091F0809157048E7F80935704C4
:101110008FB7F89410928301109284012CE334E08D
:1011200030938601209385018FBF1092F9011092B0
:10113000AD011092AC011092220210924402109262
:10114000200281E080931F021092FA0161E082E1A7
:101150000E94880261E083E10E9488028091B900C8
:101160008E7F8093B9008091B9008D7F8093B90004
:1011700088E48093B80085E48093BC006FEF80E042
:101180000E9444026FEF81E00E94440210E0772445
:1011900073940FEF85EED82E95ECC92E2CE8E22E35
:1011A00021E0F22E812C912C5401839466246394C7
:1011B000183008F4612CE12FE7705E2E8091F90160
:1011C0008062709221028093430210922202109258
:1011D0004402662D85E492E00E941B020E94DE001C
:1011E0009091F9019062809120028111FCCF709260
:1011F000200270921F0200931E0210921D02109294
:101200001C027092FB018091FB01990F982B909327
:10121000FB018091FA01813049F41092FA0180912A
:10122000FB018093BB00C092BC0002C0D092BC0006
:10123000809120028130E1F380911D02811103C071
:1012400080911D0201C081E0ACEFB1E0ECE8F1E07B
:101250009E2F9E19981718F49D919193F9CF109293
:10126000AD018093AC0185E492E00E94C201B5011A
:10127000A40104C0440F551F661F771F5A94D2F76C
:101280004095642F6823862D0E9444021F5F103111
:1012900009F08CCF60E0809159020E94880261E0E1
:1012A000809159020E94D4026AE070E080E090E0F0
:1012B0000E94350360E0809159020E94D40268EEDA
:1012C00073E080E090E00E9435030E9437010E94A5
:1012D000370168E271E08AE592E00E94FF09892BFC
:1012E00059F06AEF70E080E090E00E9435030E94C0
:1012F00037010E94370103C081E080934201809151
:10130000550290915602DC01ED91FC910480F5812B
:10131000E02D0995A0915502B0915602892B49F014
:10132000ED91FC9111970680F781E02DCD01099593
:10133000E6CF60E471E0CD010E94F904009155020E
:101340001091560219A281E388A3BE01605E7F4F0F
:10135000C8010E94F904D801ED91FC910190F0813F
:10136000E02D6DE0C8010995D801ED91FC91019047
:10137000F081E02D6AE0C80109950E9437010E94C2
:10138000370100E010E001151105E9F30E940000AB
:10139000FACF8CE191E090933D0480933C0420913E
:1013A0004804263140F5283028F02E3030F0ECE6A5
:1013B000F0E005C0EDE6F0E002C0EBE6F0E03081E1
:1013C000283038F481E090E001C0880F2A95EAF7D0
:1013D0000FC0422F50E02E3018F44850510902C07F
:1013E0004E50510981E090E001C0880F4A95EAF71C
:1013F0008095832380830895F8940C94470AFB0119
:1014000051915523A9F0BF01DC014D9145174111C0
:10141000E1F759F4CD010190002049F04D914015BC
:101420004111C9F3FB014111EFCF81E090E0019739
:10143000089597FB072E16F4009407D077FD09D086
:101440000E942D0A07FC05D03EF4909581959F4F90
:101450000895709561957F4F0895AA1BBB1B51E1BC
:1014600007C0AA1FBB1FA617B70710F0A61BB70B14
:10147000881F991F5A95A9F780959095BC01CD01B9
:101480000895EE0FFF1F0590F491E02D099410E0F0
:10149000C3EBD0E004C0FE010E94410A2196C43B88
:0814A000D107C9F7F894FFCF52
:1014A800000000001B02DE01D601C201B301B20137
:1014B800000000005B03600200000000840460027A
:1014C800E003F803B703D103416461667275697478
:1014D80020465820536F756E6420426F6172640015
:0214E8002300DF
:00000001FF
